{
  "contractName": "Elevator",
  "abi": [
    {
      "inputs": [],
      "payable": false,
      "stateMutability": "nonpayable",
      "type": "constructor"
    },
    {
      "constant": true,
      "inputs": [],
      "name": "capacity",
      "outputs": [
        {
          "internalType": "int256",
          "name": "",
          "type": "int256"
        }
      ],
      "payable": false,
      "stateMutability": "view",
      "type": "function"
    },
    {
      "constant": true,
      "inputs": [],
      "name": "current_position",
      "outputs": [
        {
          "internalType": "int256",
          "name": "",
          "type": "int256"
        }
      ],
      "payable": false,
      "stateMutability": "view",
      "type": "function"
    },
    {
      "constant": true,
      "inputs": [],
      "name": "people_in_lift",
      "outputs": [
        {
          "internalType": "int256",
          "name": "",
          "type": "int256"
        }
      ],
      "payable": false,
      "stateMutability": "view",
      "type": "function"
    },
    {
      "constant": false,
      "inputs": [
        {
          "internalType": "int256",
          "name": "_update",
          "type": "int256"
        }
      ],
      "name": "update_position",
      "outputs": [],
      "payable": false,
      "stateMutability": "nonpayable",
      "type": "function"
    },
    {
      "constant": false,
      "inputs": [
        {
          "internalType": "int256",
          "name": "_update",
          "type": "int256"
        }
      ],
      "name": "update_people_in_lift",
      "outputs": [],
      "payable": false,
      "stateMutability": "nonpayable",
      "type": "function"
    },
    {
      "constant": false,
      "inputs": [
        {
          "internalType": "int256",
          "name": "_calledFrom",
          "type": "int256"
        }
      ],
      "name": "liftCalled",
      "outputs": [
        {
          "internalType": "int256",
          "name": "",
          "type": "int256"
        }
      ],
      "payable": false,
      "stateMutability": "nonpayable",
      "type": "function"
    },
    {
      "constant": false,
      "inputs": [
        {
          "internalType": "int256",
          "name": "_numberOfPeopleGoingInLift",
          "type": "int256"
        },
        {
          "internalType": "int256",
          "name": "_numberOfPeopleComingOutOfLift",
          "type": "int256"
        }
      ],
      "name": "people",
      "outputs": [
        {
          "internalType": "int256",
          "name": "",
          "type": "int256"
        }
      ],
      "payable": false,
      "stateMutability": "nonpayable",
      "type": "function"
    }
  ],
  "bytecode": "0x608060405234801561001057600080fd5b5060086000819055506001808190555060006002819055506103f1806100376000396000f3fe608060405234801561001057600080fd5b506004361061007d5760003560e01c8063845947041161005b578063845947041461010a578063d20f59c014610138578063d21405bb14610166578063ff48e02f146101a85761007d565b8063433259bc146100825780634d56acd3146100ce5780635cfc1a51146100ec575b600080fd5b6100b86004803603604081101561009857600080fd5b8101908080359060200190929190803590602001909291905050506101c6565b6040518082815260200191505060405180910390f35b6100d66101e3565b6040518082815260200191505060405180910390f35b6100f46101e9565b6040518082815260200191505060405180910390f35b6101366004803603602081101561012057600080fd5b81019080803590602001909291905050506101ef565b005b6101646004803603602081101561014e57600080fd5b8101908080359060200190929190505050610311565b005b6101926004803603602081101561017c57600080fd5b810190808035906020019092919050505061031f565b6040518082815260200191505060405180910390f35b6101b06103b6565b6040518082815260200191505060405180910390f35b60008082840390506101d7816101ef565b60025491505092915050565b60015481565b60005481565b6008600254131580156102055750600060025412155b610277576040517f08c379a000000000000000000000000000000000000000000000000000000000815260040180806020018281038252601d8152602001807f496e76616c6964206e6f2e206f662070656f706c655f696e5f6c69667400000081525060200191505060405180910390fd5b600881600254011315801561029157506000816002540112155b610303576040517f08c379a000000000000000000000000000000000000000000000000000000000815260040180806020018281038252601f8152602001807f496e76616c6964206e6f2e206f662070656f706c655f696e5f6c69667420310081525060200191505060405180910390fd5b806002540160028190555050565b806001540160018190555050565b6000806001548303905061033281610311565b600860015413156103ab576040517f08c379a000000000000000000000000000000000000000000000000000000000815260040180806020018281038252600d8152602001807f496e76616c696420466c6f6f720000000000000000000000000000000000000081525060200191505060405180910390fd5b600154915050919050565b6002548156fea265627a7a72315820161425e03056e0d4740374e2cd235783492498eda6bff08881cafa5abf947d1964736f6c63430005100032",
  "source": "pragma solidity >=0.4.0 < 0.7.0;\n\ncontract Elevator{\n    int public capacity;\n    int public current_position;\n    int public people_in_lift;\n\n    constructor() public{\n        capacity = 8;\n        current_position = 1;\n        people_in_lift = 0;\n    }\n    modifier is_full(){\n        require(people_in_lift <= 8 && people_in_lift >= 0, \"Invalid no. of people_in_lift\");\n        _;\n    }\n    function update_position(int _update) public {\n        current_position = current_position + _update;\n    }\n    function update_people_in_lift(int _update) public is_full{\n        require(people_in_lift+_update <= 8 && people_in_lift + _update >= 0, \"Invalid no. of people_in_lift 1\");\n        people_in_lift = people_in_lift + _update;\n    }\n    function liftCalled(int _calledFrom) public returns(int){\n\n        int update_position_by = _calledFrom - current_position;\n        update_position(update_position_by);\n        require(current_position <= 8,\"Invalid Floor\");\n        return (current_position);\n    }\n\n    function people(int _numberOfPeopleGoingInLift, int _numberOfPeopleComingOutOfLift) public returns(int){\n        int update_capacity_by = _numberOfPeopleGoingInLift - _numberOfPeopleComingOutOfLift;\n        update_people_in_lift(update_capacity_by);\n        return people_in_lift;\n    }\n}",
  "sourcePath": "/home/samarth/Blockchain/Ethereum/elevator-management/contracts/Elevator.sol",
  "compiler": {
    "name": "solc",
    "version": "0.5.16+commit.9c3226ce.Emscripten.clang"
  },
  "schemaVersion": "3.0.23",
  "updatedAt": "2020-04-12T16:38:14.314Z",
  "networkType": "ethereum",
  "devdoc": {
    "methods": {}
  },
  "userdoc": {
    "methods": {}
  }
}